{
  "_format": "hh-sol-artifact-1",
  "contractName": "MusicNFT",
  "sourceName": "contracts/MusicNFT.sol",
  "abi": [
    {
      "inputs": [],
      "stateMutability": "nonpayable",
      "type": "constructor"
    },
    {
      "anonymous": false,
      "inputs": [
        {
          "indexed": false,
          "internalType": "uint256",
          "name": "id",
          "type": "uint256"
        },
        {
          "indexed": false,
          "internalType": "string",
          "name": "title",
          "type": "string"
        },
        {
          "indexed": false,
          "internalType": "string",
          "name": "artist",
          "type": "string"
        },
        {
          "indexed": false,
          "internalType": "address",
          "name": "owner",
          "type": "address"
        },
        {
          "indexed": false,
          "internalType": "uint256",
          "name": "price",
          "type": "uint256"
        },
        {
          "indexed": false,
          "internalType": "string",
          "name": "fileHash",
          "type": "string"
        }
      ],
      "name": "MusicCreated",
      "type": "event"
    },
    {
      "anonymous": false,
      "inputs": [
        {
          "indexed": false,
          "internalType": "uint256",
          "name": "id",
          "type": "uint256"
        },
        {
          "indexed": false,
          "internalType": "address",
          "name": "newOwner",
          "type": "address"
        },
        {
          "indexed": false,
          "internalType": "uint256",
          "name": "price",
          "type": "uint256"
        }
      ],
      "name": "MusicPurchased",
      "type": "event"
    },
    {
      "inputs": [
        {
          "internalType": "uint256",
          "name": "_id",
          "type": "uint256"
        },
        {
          "internalType": "uint256",
          "name": "newPrice",
          "type": "uint256"
        }
      ],
      "name": "changePrice",
      "outputs": [],
      "stateMutability": "nonpayable",
      "type": "function"
    },
    {
      "inputs": [
        {
          "internalType": "string",
          "name": "_title",
          "type": "string"
        },
        {
          "internalType": "string",
          "name": "_artist",
          "type": "string"
        },
        {
          "internalType": "uint256",
          "name": "_price",
          "type": "uint256"
        },
        {
          "internalType": "string",
          "name": "_fileHash",
          "type": "string"
        }
      ],
      "name": "createMusic",
      "outputs": [],
      "stateMutability": "nonpayable",
      "type": "function"
    },
    {
      "inputs": [
        {
          "internalType": "uint256",
          "name": "_id",
          "type": "uint256"
        }
      ],
      "name": "getMusic",
      "outputs": [
        {
          "components": [
            {
              "internalType": "uint256",
              "name": "id",
              "type": "uint256"
            },
            {
              "internalType": "string",
              "name": "title",
              "type": "string"
            },
            {
              "internalType": "string",
              "name": "artist",
              "type": "string"
            },
            {
              "internalType": "address",
              "name": "owner",
              "type": "address"
            },
            {
              "internalType": "uint256",
              "name": "price",
              "type": "uint256"
            },
            {
              "internalType": "string",
              "name": "fileHash",
              "type": "string"
            }
          ],
          "internalType": "struct MusicNFT.Music",
          "name": "",
          "type": "tuple"
        }
      ],
      "stateMutability": "view",
      "type": "function"
    },
    {
      "inputs": [
        {
          "internalType": "uint256",
          "name": "",
          "type": "uint256"
        }
      ],
      "name": "musicCollection",
      "outputs": [
        {
          "internalType": "uint256",
          "name": "id",
          "type": "uint256"
        },
        {
          "internalType": "string",
          "name": "title",
          "type": "string"
        },
        {
          "internalType": "string",
          "name": "artist",
          "type": "string"
        },
        {
          "internalType": "address",
          "name": "owner",
          "type": "address"
        },
        {
          "internalType": "uint256",
          "name": "price",
          "type": "uint256"
        },
        {
          "internalType": "string",
          "name": "fileHash",
          "type": "string"
        }
      ],
      "stateMutability": "view",
      "type": "function"
    },
    {
      "inputs": [],
      "name": "musicCount",
      "outputs": [
        {
          "internalType": "uint256",
          "name": "",
          "type": "uint256"
        }
      ],
      "stateMutability": "view",
      "type": "function"
    },
    {
      "inputs": [],
      "name": "owner",
      "outputs": [
        {
          "internalType": "address",
          "name": "",
          "type": "address"
        }
      ],
      "stateMutability": "view",
      "type": "function"
    },
    {
      "inputs": [
        {
          "internalType": "uint256",
          "name": "_id",
          "type": "uint256"
        }
      ],
      "name": "purchaseMusic",
      "outputs": [],
      "stateMutability": "payable",
      "type": "function"
    },
    {
      "inputs": [
        {
          "internalType": "uint256",
          "name": "amount",
          "type": "uint256"
        }
      ],
      "name": "withdraw",
      "outputs": [],
      "stateMutability": "nonpayable",
      "type": "function"
    }
  ],
  "bytecode": "0x6080604052348015600f57600080fd5b5033600260006101000a81548173ffffffffffffffffffffffffffffffffffffffff021916908373ffffffffffffffffffffffffffffffffffffffff16021790555061173b806100606000396000f3fe60806040526004361061007b5760003560e01c806334463d0a1161004e57806334463d0a146101195780634770ff8f1461015b5780638da5cb5b14610198578063b3de019c146101c35761007b565b806301daee61146100805780631e3a0ae91461009c578063294f98b8146100c55780632e1a7d4d146100f0575b600080fd5b61009a60048036038101906100959190610c2d565b6101ec565b005b3480156100a857600080fd5b506100c360048036038101906100be9190610da0565b6103ce565b005b3480156100d157600080fd5b506100da610528565b6040516100e79190610e6a565b60405180910390f35b3480156100fc57600080fd5b5061011760048036038101906101129190610c2d565b61052e565b005b34801561012557600080fd5b50610140600480360381019061013b9190610c2d565b61062a565b60405161015296959493929190610f45565b60405180910390f35b34801561016757600080fd5b50610182600480360381019061017d9190610c2d565b61081e565b60405161018f91906110ba565b60405180910390f35b3480156101a457600080fd5b506101ad610abb565b6040516101ba91906110dc565b60405180910390f35b3480156101cf57600080fd5b506101ea60048036038101906101e591906110f7565b610ae1565b005b600080600083815260200190815260200160002090508060040154341015610249576040517f08c379a000000000000000000000000000000000000000000000000000000000815260040161024090611183565b60405180910390fd5b3373ffffffffffffffffffffffffffffffffffffffff168160030160009054906101000a900473ffffffffffffffffffffffffffffffffffffffff1673ffffffffffffffffffffffffffffffffffffffff16036102db576040517f08c379a00000000000000000000000000000000000000000000000000000000081526004016102d2906111ef565b60405180910390fd5b60008160030160009054906101000a900473ffffffffffffffffffffffffffffffffffffffff169050338260030160006101000a81548173ffffffffffffffffffffffffffffffffffffffff021916908373ffffffffffffffffffffffffffffffffffffffff1602179055508073ffffffffffffffffffffffffffffffffffffffff166108fc349081150290604051600060405180830381858888f1935050505015801561038d573d6000803e3d6000fd5b507f5f4d1d60b7b01c3788ce5617ffccb5f5bcff98c87cb0c2ef30a7be2d5d0dc5958333346040516103c19392919061120f565b60405180910390a1505050565b600160008154809291906103e190611275565b91905055506040518060c0016040528060015481526020018581526020018481526020013373ffffffffffffffffffffffffffffffffffffffff16815260200183815260200182815250600080600154815260200190815260200160002060008201518160000155602082015181600101908161045e91906114c9565b50604082015181600201908161047491906114c9565b5060608201518160030160006101000a81548173ffffffffffffffffffffffffffffffffffffffff021916908373ffffffffffffffffffffffffffffffffffffffff1602179055506080820151816004015560a08201518160050190816104db91906114c9565b509050507f452bd401cf593187fe4a0f5d7a50dabb7b4b4222e242cc2adef926de35052626600154858533868660405161051a96959493929190610f45565b60405180910390a150505050565b60015481565b600260009054906101000a900473ffffffffffffffffffffffffffffffffffffffff1673ffffffffffffffffffffffffffffffffffffffff163373ffffffffffffffffffffffffffffffffffffffff16146105be576040517f08c379a00000000000000000000000000000000000000000000000000000000081526004016105b5906115e7565b60405180910390fd5b600260009054906101000a900473ffffffffffffffffffffffffffffffffffffffff1673ffffffffffffffffffffffffffffffffffffffff166108fc829081150290604051600060405180830381858888f19350505050158015610626573d6000803e3d6000fd5b5050565b6000602052806000526040600020600091509050806000015490806001018054610653906112ec565b80601f016020809104026020016040519081016040528092919081815260200182805461067f906112ec565b80156106cc5780601f106106a1576101008083540402835291602001916106cc565b820191906000526020600020905b8154815290600101906020018083116106af57829003601f168201915b5050505050908060020180546106e1906112ec565b80601f016020809104026020016040519081016040528092919081815260200182805461070d906112ec565b801561075a5780601f1061072f5761010080835404028352916020019161075a565b820191906000526020600020905b81548152906001019060200180831161073d57829003601f168201915b5050505050908060030160009054906101000a900473ffffffffffffffffffffffffffffffffffffffff169080600401549080600501805461079b906112ec565b80601f01602080910402602001604051908101604052809291908181526020018280546107c7906112ec565b80156108145780601f106107e957610100808354040283529160200191610814565b820191906000526020600020905b8154815290600101906020018083116107f757829003601f168201915b5050505050905086565b610826610b97565b60008211801561083857506001548211155b610877576040517f08c379a000000000000000000000000000000000000000000000000000000000815260040161086e90611653565b60405180910390fd5b6000808381526020019081526020016000206040518060c0016040529081600082015481526020016001820180546108ae906112ec565b80601f01602080910402602001604051908101604052809291908181526020018280546108da906112ec565b80156109275780601f106108fc57610100808354040283529160200191610927565b820191906000526020600020905b81548152906001019060200180831161090a57829003601f168201915b50505050508152602001600282018054610940906112ec565b80601f016020809104026020016040519081016040528092919081815260200182805461096c906112ec565b80156109b95780601f1061098e576101008083540402835291602001916109b9565b820191906000526020600020905b81548152906001019060200180831161099c57829003601f168201915b505050505081526020016003820160009054906101000a900473ffffffffffffffffffffffffffffffffffffffff1673ffffffffffffffffffffffffffffffffffffffff1673ffffffffffffffffffffffffffffffffffffffff16815260200160048201548152602001600582018054610a32906112ec565b80601f0160208091040260200160405190810160405280929190818152602001828054610a5e906112ec565b8015610aab5780601f10610a8057610100808354040283529160200191610aab565b820191906000526020600020905b815481529060010190602001808311610a8e57829003601f168201915b5050505050815250509050919050565b600260009054906101000a900473ffffffffffffffffffffffffffffffffffffffff1681565b600080600084815260200190815260200160002090503373ffffffffffffffffffffffffffffffffffffffff168160030160009054906101000a900473ffffffffffffffffffffffffffffffffffffffff1673ffffffffffffffffffffffffffffffffffffffff1614610b89576040517f08c379a0000000000000000000000000000000000000000000000000000000008152600401610b80906116e5565b60405180910390fd5b818160040181905550505050565b6040518060c00160405280600081526020016060815260200160608152602001600073ffffffffffffffffffffffffffffffffffffffff16815260200160008152602001606081525090565b6000604051905090565b600080fd5b600080fd5b6000819050919050565b610c0a81610bf7565b8114610c1557600080fd5b50565b600081359050610c2781610c01565b92915050565b600060208284031215610c4357610c42610bed565b5b6000610c5184828501610c18565b91505092915050565b600080fd5b600080fd5b6000601f19601f8301169050919050565b7f4e487b7100000000000000000000000000000000000000000000000000000000600052604160045260246000fd5b610cad82610c64565b810181811067ffffffffffffffff82111715610ccc57610ccb610c75565b5b80604052505050565b6000610cdf610be3565b9050610ceb8282610ca4565b919050565b600067ffffffffffffffff821115610d0b57610d0a610c75565b5b610d1482610c64565b9050602081019050919050565b82818337600083830152505050565b6000610d43610d3e84610cf0565b610cd5565b905082815260208101848484011115610d5f57610d5e610c5f565b5b610d6a848285610d21565b509392505050565b600082601f830112610d8757610d86610c5a565b5b8135610d97848260208601610d30565b91505092915050565b60008060008060808587031215610dba57610db9610bed565b5b600085013567ffffffffffffffff811115610dd857610dd7610bf2565b5b610de487828801610d72565b945050602085013567ffffffffffffffff811115610e0557610e04610bf2565b5b610e1187828801610d72565b9350506040610e2287828801610c18565b925050606085013567ffffffffffffffff811115610e4357610e42610bf2565b5b610e4f87828801610d72565b91505092959194509250565b610e6481610bf7565b82525050565b6000602082019050610e7f6000830184610e5b565b92915050565b600081519050919050565b600082825260208201905092915050565b60005b83811015610ebf578082015181840152602081019050610ea4565b60008484015250505050565b6000610ed682610e85565b610ee08185610e90565b9350610ef0818560208601610ea1565b610ef981610c64565b840191505092915050565b600073ffffffffffffffffffffffffffffffffffffffff82169050919050565b6000610f2f82610f04565b9050919050565b610f3f81610f24565b82525050565b600060c082019050610f5a6000830189610e5b565b8181036020830152610f6c8188610ecb565b90508181036040830152610f808187610ecb565b9050610f8f6060830186610f36565b610f9c6080830185610e5b565b81810360a0830152610fae8184610ecb565b9050979650505050505050565b610fc481610bf7565b82525050565b600082825260208201905092915050565b6000610fe682610e85565b610ff08185610fca565b9350611000818560208601610ea1565b61100981610c64565b840191505092915050565b61101d81610f24565b82525050565b600060c08301600083015161103b6000860182610fbb565b50602083015184820360208601526110538282610fdb565b9150506040830151848203604086015261106d8282610fdb565b91505060608301516110826060860182611014565b5060808301516110956080860182610fbb565b5060a083015184820360a08601526110ad8282610fdb565b9150508091505092915050565b600060208201905081810360008301526110d48184611023565b905092915050565b60006020820190506110f16000830184610f36565b92915050565b6000806040838503121561110e5761110d610bed565b5b600061111c85828601610c18565b925050602061112d85828601610c18565b9150509250929050565b7f496e73756666696369656e74207061796d656e74000000000000000000000000600082015250565b600061116d601483610e90565b915061117882611137565b602082019050919050565b6000602082019050818103600083015261119c81611160565b9050919050565b7f43616e6e6f7420707572636861736520796f7572206f776e206d757369630000600082015250565b60006111d9601e83610e90565b91506111e4826111a3565b602082019050919050565b60006020820190508181036000830152611208816111cc565b9050919050565b60006060820190506112246000830186610e5b565b6112316020830185610f36565b61123e6040830184610e5b565b949350505050565b7f4e487b7100000000000000000000000000000000000000000000000000000000600052601160045260246000fd5b600061128082610bf7565b91507fffffffffffffffffffffffffffffffffffffffffffffffffffffffffffffffff82036112b2576112b1611246565b5b600182019050919050565b7f4e487b7100000000000000000000000000000000000000000000000000000000600052602260045260246000fd5b6000600282049050600182168061130457607f821691505b602082108103611317576113166112bd565b5b50919050565b60008190508160005260206000209050919050565b60006020601f8301049050919050565b600082821b905092915050565b60006008830261137f7fffffffffffffffffffffffffffffffffffffffffffffffffffffffffffffffff82611342565b6113898683611342565b95508019841693508086168417925050509392505050565b6000819050919050565b60006113c66113c16113bc84610bf7565b6113a1565b610bf7565b9050919050565b6000819050919050565b6113e0836113ab565b6113f46113ec826113cd565b84845461134f565b825550505050565b600090565b6114096113fc565b6114148184846113d7565b505050565b5b818110156114385761142d600082611401565b60018101905061141a565b5050565b601f82111561147d5761144e8161131d565b61145784611332565b81016020851015611466578190505b61147a61147285611332565b830182611419565b50505b505050565b600082821c905092915050565b60006114a060001984600802611482565b1980831691505092915050565b60006114b9838361148f565b9150826002028217905092915050565b6114d282610e85565b67ffffffffffffffff8111156114eb576114ea610c75565b5b6114f582546112ec565b61150082828561143c565b600060209050601f8311600181146115335760008415611521578287015190505b61152b85826114ad565b865550611593565b601f1984166115418661131d565b60005b8281101561156957848901518255600182019150602085019450602081019050611544565b868310156115865784890151611582601f89168261148f565b8355505b6001600288020188555050505b505050505050565b7f4f6e6c79206f776e65722063616e207769746864726177000000000000000000600082015250565b60006115d1601783610e90565b91506115dc8261159b565b602082019050919050565b60006020820190508181036000830152611600816115c4565b9050919050565b7f496e76616c6964206d7573696320494400000000000000000000000000000000600082015250565b600061163d601083610e90565b915061164882611607565b602082019050919050565b6000602082019050818103600083015261166c81611630565b9050919050565b7f4f6e6c7920746865206f776e65722063616e206368616e67652074686520707260008201527f6963650000000000000000000000000000000000000000000000000000000000602082015250565b60006116cf602383610e90565b91506116da82611673565b604082019050919050565b600060208201905081810360008301526116fe816116c2565b905091905056fea26469706673582212207b2b75032c1edc52df126ee3a86daba0fb552b710d88211a8d7ecaca8a55068864736f6c634300081c0033",
  "linkReferences": {},
  "deployedLinkReferences": {}
}